:020000040800F2
:10000000B0E102201D030008A32A00088B28000885
:100010009F2A0008D10800089D2F0008000000005A
:100020000000000000000000000000005D02000869
:10003000D508000800000000B9020008A52A000841
:1000400037030008370300083703000837030008A8
:100050003703000837030008370300083703000898
:100060003703000837030008370300083703000888
:100070003703000837030008370300083703000878
:100080003703000837030008370300083703000868
:100090003703000837030008370300083703000858
:1000A0003703000837030008370300083703000848
:1000B0003703000837030008370300083703000838
:1000C0003703000837030008370300083703000828
:1000D000370300084D2F00083703000837030008D6
:1000E0003703000837030008370300083703000808
:1000F00037030008370300083703000837030008F8
:1001000037030008370300083703000837030008E7
:100110003703000837030008CD2A0008370300081A
:1001200037030008370300083703000837030008C7
:1001300037030008370300083703000837030008B7
:1001400037030008370300083703000837030008A7
:100150003703000837030008370300083703000897
:100160003703000837030008370300083703000887
:1001700037030008370300083703000800000000B9
:100180003703000837030008370300083703000867
:100190003703000837030008370300083703000857
:1001A00037030008370300083703000800F002F89F
:1001B00000F044F80AA090E8000C82448344AAF1BD
:1001C0000107DA4501D100F039F8AFF2090EBAE8BB
:1001D0000F0013F0010F18BFFB1A43F0010318477B
:1001E0002CD600004CD60000103A24BF78C878C145
:1001F000FAD8520724BF30C830C144BF04680C602D
:10020000704700000023002400250026103A28BF74
:1002100078C1FBD8520728BF30C148BF0B60704778
:10022000642900F07D81732900F0E482002070478A
:100230001FB508F027FF1FBD10B510BD00F016FB5D
:100240001146FFF7F5FF06F0B5FA00F034FB03B4F2
:10025000FFF7F2FF03BC02F0BFFE00002C4B196851
:100260000868B0E8F04F80F30988BFF36F8F4FF054
:10027000000080F311887047000000000848006803
:10028000006880F308884FF0000080F3148862B69D
:1002900061B6BFF34F8FBFF36F8F00DF00BF00BFAA
:1002A00008ED00E0DFF80C00016841F47001016026
:1002B000704700BF88ED00E0EFF30980BFF36F8F58
:1002C000134B1A681EF0100F08BF20ED108A20E9AA
:1002D000F04F106009B44FF0500080F31188BFF365
:1002E0004F8FBFF36F8F07F0DFFE4FF0000080F3FA
:1002F000118809BC19680868B0E8F04F1EF0100FAB
:1003000008BFB0EC108A80F30988BFF36F8F704785
:1003100074000020EFF30580704700000948804713
:1003200009480047FEE7FEE7FEE7FEE7FEE7FEE7D7
:10033000FEE7FEE7FEE7FEE704480549054A064BEF
:1003400070470000B92A0008AD010008B0D70220AC
:10035000B0E10220B0D90220B0D90220704753EAA0
:10036000020C00F069802DE9F04B4FF00006002BE5
:100370001FBFB3FA83F503FA05F424FA05F65E40CD
:1003800012BF1643B2FA82F502FA05F4C5F1200550
:100390001EBF22FA05FC44EA0C04203556EA044C40
:1003A0004FEA144418BF641C4FF000084FF00009D6
:1003B000904271EB030C39D3002919BFB1FA81F7D0
:1003C00001FA07F6B0FA80F700FA07F6C7F120073E
:1003D0001EBF20FA07FC46EA0C062037B6FBF4FCE9
:1003E000A7EB0507103F07F01F0BCBF120060CFA17
:1003F0000BFB2CFA06F644BFB3460026202FA4BF01
:100400005E464FF0000B5BEA060C08BF4FF0010B95
:1004100019EB0B09ABFB027C48EB0608C01B06FB83
:1004200002CC0BFB03CC71EB0C01C1E70B4602467F
:1004300041464846BDE8F08B13B54FF000004FF041
:100440000001AFF30080BDE81C4070470FB40449C1
:1004500010B503AA029800F0D1F910BC5DF814FBA6
:10046000280000202DE9F0410E46044600202062BD
:100470002046E168884730B3252805D0D4E901211A
:100480009047206A401CF2E7E16820460027884731
:10049000050018D0A5F14100192802D820354FF4E5
:1004A00000673246294620462760FFF7B9FE40B173
:1004B000012804D0F61D26F007060836D8E7361DB9
:1004C000D6E72846DAE7206ABDE8F08170B50C4629
:1004D0000546012A05D02878800600D5EA69002360
:1004E00002E0012305E05B1C934202D2E05C00289D
:1004F000F9D1A869E618C01AA861286A18442862C8
:100500002846AFF3008004E0D5E9012114F8010B7F
:100510009047B442F8D32846AFF3008070BD000086
:100520002DE9F0410646002410687529314616A5CC
:1005300010D0AFF30080002802DA404213A507E094
:1005400031688A0701D512A502E0490704D511A533
:10055000012401E0AFF3008000210A2206F1240704
:1005600009E0B0FBF2FCB0FBF2F302FB1C00303000
:1005700078541846491C0028F3D123462A463046B1
:10058000BDE8F04100F0B2B8000000002D0000000E
:100590002B00000020000000032A40F2308010F001
:1005A000030C00F0158011F8013BBCF1020F62440E
:1005B00098BF11F801CB00F8013B38BF11F8013B9F
:1005C000A2F1040298BF00F801CB38BF00F8013B4C
:1005D00011F0030300F02580083AC0F0088051F8BC
:1005E000043B083A51F804CBA0E80810F5E7121DC7
:1005F0005CBF51F8043B40F8043BAFF30080D207E6
:1006000024BF11F8013B11F801CB48BF11F8012BB1
:1006100024BF00F8013B00F801CB48BF00F8012BD4
:10062000704710B5203AC0F00B80B1E81850203A5E
:10063000A0E81850B1E81850A0E81850BFF4F5AF82
:100640005FEA027C24BFB1E81850A0E8185044BF0C
:1006500018C918C0BDE810405FEA827C24BF51F879
:10066000043B40F8043B08BF7047D20728BF31F86D
:10067000023B48BF11F8012B28BF20F8023B48BFBE
:1006800000F8012B704702F0FF0343EA032242EA1D
:10069000024200F0C7B84FF0000200B5134694467E
:1006A0009646203922BFA0E80C50A0E80C50B1F1CA
:1006B0002001BFF4F7AF090728BFA0E80C5048BFDE
:1006C0000CC05DF804EB890028BF40F8042B08BF7C
:1006D000704748BF20F8022B11F0804F18BF00F878
:1006E000012B704770477047704770472DE9F047FE
:1006F0000D4699469246044600F124080168880692
:1007000004D5E06921F01001216000E00120A84239
:1007100001DD471B00E00027A1697A1902EB0900FF
:10072000081AA0612078C00602D42046AFF30080EA
:10073000002608E0D4E901211AF806009047206A53
:10074000401C761C20624E45F4DB2078C0060AD59A
:100750002046AFF3008006E0D4E901213020904725
:10076000206A401C2062381EA7F10107F4DC07E074
:10077000D4E9012118F805009047206A401C206246
:10078000281EA5F10105F3DC2046AFF30080207898
:10079000000602D50220BDE8F0870120FBE700003B
:1007A00001694A1C02610878704700B58FB0CDE935
:1007B00001310021059105497944CDE90310114625
:1007C0006846FFF74FFE0FB000BD0000E5FFFFFFDA
:1007D00010B5436913B1AFF3008001E0FFF776FE77
:1007E000012010BD127800F124010A7000224A7025
:1007F0000122EDE711684FF0FF32E9E7074B70B5D2
:100800000D467B44FFF7D1FF0446284600F02AF846
:1008100010B14FF0FF3070BD204670BD6F28000052
:100820004FF000020429C0F0128010F0030C3FF4D6
:1008300034AFCCF1040CBCF1020F18BF00F8012B4F
:10084000A8BF20F8022BA1EB0C01FFF726BF5FEA3F
:10085000C17C24BF00F8012B00F8012B48BF00F831
:10086000012B7047007B00F080007047754600F058
:100870002BF8AE4605006946534620F00700854632
:1008800018B020B5FFF758FDBDE820404FF0000636
:100890004FF000074FF000084FF0000B21F0070168
:1008A000AC46ACE8C009ACE8C009ACE8C009ACE8AB
:1008B000C0098D46704710B50446AFF3008020464E
:1008C000BDE81040FFF7C3BC004870474CD702207A
:1008D00000BFFEE77047000070B50446B3F5804FD7
:1008E00013D1D1E9000540EA05108D6840EA0520E2
:1008F0008D6928438D8940EA054054F82250064E00
:100900003540284344F8220003E06FF0704044F87B
:100910002200002070BD00000000F0CF70B502463C
:10092000086852F8200020F001000E6842F8260006
:100930008868082801D1402500E000254868284340
:100940008E683043CE6830430E6930434E69304381
:10095000CE6930430E6A30434E6A30438E6A30436C
:10096000CE6A30430E6B40EA060388690343486B46
:100970000343C86B03430E4C44F4806444F4801476
:1009800044F4E024086852F82000A04318430E689D
:1009900042F82600486BB0F5801F07D1086828B1DF
:1009A000106820F480104E6B30431060002070BD42
:1009B0007FFB080030B50346D1E9000540EA051089
:1009C0008D6840EA05208D8940EA0545088A401E69
:1009D00045EA0055087D801E45EA00608D69284380
:1009E000551C53F8255005F040452843551C43F845
:1009F0002500186800F48010B0F5801F0BD15868EE
:100A000020F47004088A401E44EA0054586820F418
:100A1000700020435860002030BD02460868B0B91D
:100A2000D1E901031843CB6818430B6918434B699C
:100A300018438B691843CB6918430B6A18434B6AF8
:100A4000184313686FF30E031843106019E0D1E9DF
:100A5000070318434B6A1843136823F4F8431843F9
:100A60001060D1E901031843CB6818430B691843A0
:100A70004B6918438B69184353686FF30E0318438F
:100A80005060002070470246506943F6FE73984359
:100A900040EA41005061002070472DE9F0410546D1
:100AA0000C4616460027D4E900010843A168491EF8
:100AB00040EA4110E16840EA412029696FF31501DD
:100AC0000843286100F0E8F907460AE0701C40B1CD
:100AD00026B100F0E1F9C01BB04202D90320BDE805
:100AE000F081A86900F020002028EFD00020F6E770
:100AF00030B50346FAB90868401E4C68641E40EAE7
:100B000004148868401E44EA0024C868401E44EA71
:100B10000034088A401E44EA0044888A401E44EAA1
:100B20000054087E401E44EA00609C6804F0704453
:100B30002043986022E0C868401E0403888A401E53
:100B400044EA00509C680E4D2C4020439860086891
:100B5000401E4C68641E40EA04148868401E44EA43
:100B60000024088A401E44EA0044087E401E44EAED
:100B70000060DC6804F070442043D860002030BD81
:100B8000FF0F0FFF70B50446A56D00F085F906460E
:100B900094F83500022808D08020606500BF00204E
:100BA00084F8340000BF012070BD2068006820F088
:100BB0001600216808602068406920F080002168E4
:100BC0004861206C08B9A06C28B12068006820F04A
:100BD0000800216808602068006820F00100216892
:100BE000086010E000F058F9801B05280BD9202080
:100BF0006065032084F8350000BF002084F83400CD
:100C000000BF0320D0E72068006800F00100002842
:100C1000E8D194F85C103F208840A860012084F857
:100C2000350000BF002084F8340000BF00BFBBE7E0
:100C3000014691F83500022803D080204865012044
:100C40007047052081F835000868006820F0010031
:100C50000A6810600020F3E7F8B502460B4600254D
:100C6000002400200021E0E0012606FA01F51E68BC
:100C700006EA0504AC4274D11E7906F00306012E83
:100C800004D01E7906F00306022E13D190684F009F
:100C90000326BE40B0434F00DE68BE403043906044
:100CA000506801268E40B0431E79C6F300168E4070
:100CB000304350601E7906F00306032E09D0D06839
:100CC0004F000326BE40B0434F009E68BE403043F5
:100CD000D0601E7906F00306022E13D1CF0802F170
:100CE000200656F827004E07F70E0F26BE40B043E9
:100CF0004F07FF0E1E69BE403043CF0802F12006A9
:100D000046F8270010684F000326BE40B0431E7906
:100D100006F003064F00BE40304310605E6806F4E4
:100D20004036002E1DD000BF00260096414E36688A
:100D300046F480463F4F3E603E46366806F48046A5
:100D4000009600BF00BF3C4E8F0856F827008E0764
:100D5000370F0F26BE40B043384EB24202D10026B4
:100D60002EE061E0364EB24201D1012628E0354E38
:100D7000B24201D1022623E0334EB24201D1032612
:100D80001EE0324EB24201D1042619E0304EB2428A
:100D900001D1052614E02F4EB24201D106260FE004
:100DA0002D4EB24201D107260AE02C4EB24201D1AB
:100DB000082605E02A4EB24201D1092600E00A26A3
:100DC0008F073F0FBE4030431B4E8F0846F8270069
:100DD000244E3068A0435E6806F4801606B12043B6
:100DE000204E3060361D3068A0435E6806F4001661
:100DF00006B120431B4E361D30601A4E361F306838
:100E0000A0435E6806F4003606B12043154E361F37
:100E10003060361F3068A0435E6806F4803606B145
:100E20002043104E083E3060491C1029FFF41CAFCF
:100E3000F8BD00004438024008380140000002407C
:100E40000004024000080240000C02400010024072
:100E50000014024000180240001C02400020024022
:100E600000240240083C0140024613690B400BB1CC
:100E7000012000E00020704710B5426921EA02031A
:100E800002EA010443EA0443836110BD0AB18161AF
:100E900001E00B048361704701480068704700005F
:100EA00034000020034800680349097808440149D8
:100EB00008607047340000203C00002010B50D4849
:100EC000006840F400700B4908600846006840F470
:100ED000806008600846006840F480700860052063
:100EE00000F056FA0F2000F007F800F001FA002099
:100EF00010BD0000003C024070B504460E4800786A
:100F00004FF47A71B1FBF0F00C490968B1FBF0F5D0
:100F1000284601F039F908B1012070BD102C07D224
:100F200000222146501E00F0F4F90548046001E05B
:100F30000120F2E70020F0E73C0000200000002044
:100F40003800002070B504460E46154600BF94F8E0
:100F5000A000012801D1022070BD012084F8A0006A
:100F600000BF022084F8A10005EB850101EBC5025A
:100F700004F1380101EB820034223146FFF751FBC6
:100F80002A463146204601F082FC01202168486251
:100F900084F8A10000BF002084F8A00000BF00BFBB
:100FA000DAE7000070B504460CB9012070BD94F872
:100FB000A10028B9002084F8A000204600F07EF8A7
:100FC000022084F8A1002068806920F07040216828
:100FD0008861D4E901010843E168084321690843B5
:100FE00021688969084321688861206880683249DE
:100FF000084021688860A08A050420688068A1698B
:1010000029430843216888602068C0682A4908404D
:101010002168C860A08B05042068C068216A294344
:1010200008432168C8602068006923490840216896
:101030000861A08C050420680069A16A294308435F
:1010400021680861206840691B490840216848619F
:10105000A08D050420684069216B2943084321685D
:10106000486194F83500050294F8360006042068BB
:10107000C06A00F07F402168C86246EA050094F823
:10108000341008432168C96A08432168C86220688F
:10109000406B40F00600216848632068806940F09A
:1010A0000100216888610020C4F8A400012084F8B0
:1010B000A10000207AE7000000F800F010B586B02B
:1010C000044600BF002000904D48006840F080605A
:1010D0004B4908600846006800F08060009000BF3F
:1010E00000BF00BF0020009045481438006840F45D
:1010F00000004349143908600846006800F4000005
:10110000009000BF00BF00BF0020009008460068AC
:1011100040F0020008600846006800F002000090FD
:1011200000BF00BF00BF002000900846006840F0EC
:10113000200008600846006800F02000009000BF12
:1011400000BF00BF002000900846006840F040004B
:1011500008600846006800F04000009000BF00BF33
:1011600000BF002000900846006840F08000086042
:101170000846006800F08000009000BF00BF00BF7C
:10118000002000900846006840F48070086008461F
:10119000006800F48070009000BF00BF2020019024
:1011A0000120029003900320049001A91548FFF745
:1011B00053FD4FF4806001900220029000200390C4
:1011C000032004900E20059001A90F48FFF744FD6D
:1011D0004FF40C60019001A90C48FFF73DFD4FF45E
:1011E0007E40019001A90A48FFF736FD40F2F76002
:1011F000019001A90748FFF72FFD06B010BD0000C0
:10120000443802400004024000140240001802402A
:10121000001C0240002002402DE9F04104460E4629
:101220001746984600BF94F8A000012802D102207A
:10123000BDE8F081012084F8A00000BF022084F8FE
:10124000A10008EB880000EBC80104F1380000EBB6
:1012500081052E60A86A30446860AF60E86A38444F
:10126000E86042462946204601F011FB0120216832
:10127000486284F8A10000BF002084F8A00000BFED
:1012800000BFD5E72DE9F04104460E4617469846C3
:1012900000BF94F8A000012802D10220BDE8F0812F
:1012A000012084F8A00000BF022084F8A10008EB10
:1012B000880000EBC80104F1380000EB81052868C4
:1012C00030446860A8683844E860AE62EF62424625
:1012D0002946204601F0DBFA01202168486284F8A3
:1012E000A10000BF002084F8A00000BF00BFD5E728
:1012F000704701460846002809DB00F01F03012261
:101300009A4043099B0003F1E023C3F8002100BF8A
:1013100070472DE9F05F80460D461646002701F024
:101320003FFE074639462A46334601F00700C0F122
:10133000070ABAF1040F02D94FF0040A01E0C0F124
:10134000070AD14600F1040ABAF1070F02D24FF0A2
:10135000000A01E0A0F1030AD4464FF0010A0AFA9C
:1013600009FAAAF1010A0AEA020A0AFA0CFA4FF08B
:10137000010B0BFA0CFBABF1010B0BEA030B4AEA76
:101380000B042146404601F013FEBDE8F09F00002B
:1013900000BF00F00702064B19684FF6FF03194023
:1013A000044B0B4343EA0221014B196000BF704715
:1013B0000CED00E00000FA0538B5002400BF002065
:1013C00000901D48006840F080501B4908600846A6
:1013D000006800F08050009000BF00BF0120174956
:1013E0000864FFF759FD044607E0FFF755FD001BB1
:1013F000B0F57A7F01D9032038BD1148406800F468
:101400008030B0F5803FF0D101200C494864FFF7EF
:1014100043FD044607E0FFF73FFD001BB0F57A7F70
:1014200001D90320E8E70648406800F40030B0F531
:10143000003FF0D10020DFE74038024000000E42BC
:1014400000700040F8B5044600250026207800F022
:10145000010048B9207800F00200022804D020786A
:1014600000F04000402862D10020B1498866FFF7B3
:1014700013FD054606E0FFF70FFD401B022801D9CA
:101480000320F8BDAB480068C0F3C0600028F2D16B
:10149000207800F0010038B160688101207A41EACB
:1014A0000070A44984310860207800F0020002280E
:1014B00019D1A04884300068C0F3027660688101C9
:1014C000207B41EA006040EA06709A498431086056
:1014D00098488C30006820F01F00E169491E0843DD
:1014E00094498C310860207800F0400040280AD1EF
:1014F00060688101207B41EA0061207A41EA007046
:101500008C4984310860012089498866FFF7C4FC52
:10151000054606E0FFF7C0FC401B022801D9032066
:10152000AFE784480068C0F3C0600028F2D020789C
:1015300000F00400042804D0207800F008000828F7
:1015400063D100207A490867FFF7A6FC054606E04C
:10155000FFF7A2FC401B022801D9032091E7754840
:101560000068C0F340700028F2D1207800F0040039
:10157000042819D16F4888300068C0F302762069CA
:101580008101207D41EA006040EA067069498831A6
:101590000860081D006820F4F851206A401E41EAE6
:1015A000002064498C310860207800F00800082889
:1015B00017D1604888300068C0F303662069800155
:1015C00040EA0661207E41EA00705A49883108608D
:1015D000081D006820F44030616A084355498C3189
:1015E0000860012052490867FFF756FC054606E0EF
:1015F000FFF752FC401B022801D9032041E74D4868
:101600000068C0F340700028F2D0207800F020007D
:1016100020287DD100BF002000904648403000685F
:1016200040F080504349403108600846006800F0AF
:101630008050009000BF00BF3F48006840F48070B9
:101640003D490860FFF728FC054606E0FFF724FC4B
:10165000401B022801D9032013E73748006800F433
:1016600080700028F2D033487030006800F4407673
:101670004EB3208D00F44070B04224D02D4870301D
:10168000006820F4407601202C49086000200860A2
:10169000284870300660006800F0010098B1FFF73C
:1016A000FBFB054608E0FFF7F7FB401B41F28831E2
:1016B000884201D90320E4E61E4870300068C0F378
:1016C00040000028EFD000BF208D00F44070B0F53E
:1016D000407F0CD117480830006820F4F810184AF1
:1016E000A16A1140084313490831086007E0114816
:1016F0000830006820F4F8100E49083108600D48E1
:1017000070300068218DC1F30B010843094900E0E6
:1017100002E07031086000BF207800F0100010284F
:1017200003D194F82C00074908600020A9E60000C6
:10173000000047420038024000700040400E47421F
:10174000FFFCFF0FE011474270B504460D460CB98F
:10175000012070BD5848006800F00F00A84209D26F
:1017600055490D700846006800F00F00A84201D0EE
:101770000120EEE7207800F0020002281DD1207839
:1017800000F00400042805D14C48006840F4E05003
:101790004A490860207800F00800082805D1474829
:1017A000006840F46040454908604448006820F003
:1017B000F000A168084341490860207800F001006A
:1017C000A8B36068012807D13C4808380068C0F316
:1017D0004040B8B90120BCE76068022802D06068C8
:1017E000032807D1354808380068C0F3406048B97D
:1017F0000120AEE7314808380068C0F3400008B95E
:101800000120A6E72D48006820F003006168084326
:101810002A490860FFF740FB064609E0FFF73CFB5A
:10182000801B41F28831884202D9032091E707E00A
:101830002248006800F00C006168B0EB810FEDD128
:101840001D48006800F00F00A84209D91A490D7020
:101850000846006800F00F00A84201D0012078E798
:10186000207800F00400042807D11448006820F410
:10187000E050E168084311490860207800F0080052
:10188000082808D10D48006820F46040216940EA2A
:10189000C1000A49086000F03FF808490968C1F32F
:1018A0000311074A515CC8400649086006480068B1
:1018B000FFF722FB00204CE7003C024008380240C2
:1018C0008E900008000000203800002001480068C9
:1018D000704700000000002000B5FFF7F7FF044943
:1018E0000968C1F38221034A515CC84000BD000071
:1018F000083802409E90000800B5FFF7E7FF044952
:101900000968C1F34231034A515CC84000BD000080
:10191000083802409E9000082DE9F0470024002579
:101920000026A1462548006800F00C0020B10428DC
:1019300005D008283AD105E0DFF8849039E0DFF8D7
:10194000849036E01D48001F006800F03F041B48EB
:10195000001F006800F4800078B11A481749091F79
:101960000968C1F38811A0FB0170014622460023DB
:101970003846FEF7F4FC05460EE011480F49091FF2
:101980000968C1F38811A0FB0170014622460023BB
:101990003846FEF7E4FC05460848001F0068C0F31F
:1019A0000140401C4600B5FBF6F902E0DFF810905C
:1019B00000BF00BF4846BDE8F0870000083802407D
:1019C0000024F40040787D01F8B504460CB90120EC
:1019D000F8BD207800F00100002874D0F9480068B4
:1019E00000F00C0004280DD0F648006800F00C0050
:1019F000082813D1F348001F006800F48000B0F5F8
:101A0000800F0BD1EF4808380068C0F34040002831
:101A100059D06068002856D10120D9E700BF60681E
:101A2000B0F5803F08D1E7480838006840F48030BE
:101A3000E449083908601EE06068B0F5A02F0DD1B8
:101A4000E0480838006840F48020DE490839086022
:101A50000846006840F4803008600CE0D948083837
:101A6000006820F48030D7490839086008460068CB
:101A700020F48020086000BF606890B1FFF70CFA86
:101A8000054606E0FFF708FA401B642801D9032049
:101A90009EE7CC4808380068C0F340400028F1D0E9
:101AA00011E0FFF7F9F9054606E0FFF7F5F9401BED
:101AB000642801D903208BE7C24808380068C0F3C6
:101AC00040400028F1D1207800F0020002285FD1C8
:101AD000BC48006800F00C0058B1BA48006800F03B
:101AE0000C0008281CD1B748001F006800F48000D3
:101AF000B0B9B44808380068C0F3400020B1E068CD
:101B0000012801D0012063E7AE480838006820F0C2
:101B1000F800216940EAC100AA490839086037E0A5
:101B2000E06800B30120A8490860FFF7B5F9054651
:101B300006E0FFF7B1F9401B022801D9032047E76F
:101B4000A04808380068C0F340000028F1D09D4844
:101B50000838006820F0F800216940EAC10099497E
:101B60000839086014E0002097490860FFF794F9ED
:101B7000054606E0FFF790F9401B022801D9032033
:101B800026E7904808380068C0F340000028F1D1EB
:101B9000207800F0080008282CD16069A8B1012045
:101BA0008A490860FFF778F9054606E0FFF774F9FF
:101BB000401B022801D903200AE782486C300068E4
:101BC000C0F340000028F1D014E000207F490860F5
:101BD000FFF762F9054606E0FFF75EF9401B0228B1
:101BE00001D90320F4E677486C300068C0F3400068
:101BF0000028F1D1207800F00400042870D10027DB
:101C000070483830006800F0805090B900BF002064
:101C100000906C483830006840F080506949383195
:101C200008600846006800F08050009000BF00BFC8
:101C300001276748006800F48070B0B96448006804
:101C400040F4807062490860FFF726F9054606E017
:101C5000FFF722F9401B022801D90320B8E65C48AF
:101C6000006800F480700028F2D000BFA06801284E
:101C700008D154486830006840F00100514968318B
:101C800008601DE0A06805280DD14E486830006846
:101C900040F004004B49683108600846006840F095
:101CA000010008600CE047486830006820F001003F
:101CB0004449683108600846006820F00400086064
:101CC00000BFA068A8B1FFF7E7F8054609E0FFF7F5
:101CD000E3F8401B41F28831884202D9032077E6BD
:101CE00026E0384868300068C0F340000028EED095
:101CF00013E0FFF7D1F8054608E0FFF7CDF8401BE9
:101D000041F28831884201D9032061E62D486830CC
:101D10000068C0F340000028EFD1012F07D1294807
:101D20003830006820F0805026493831086000BF04
:101D3000A069002845D02348006800F00C0008285E
:101D40005DD0A069022845D100201F490866FFF731
:101D5000A3F8054606E0FFF79FF8401B022801D9CB
:101D6000032035E6174808380068C0F340600028B3
:101D7000F1D1D4E907010843616A40EA81110122E7
:101D8000A06AC2EB500041EA00412C20005D41EA0C
:101D900000600C49091F086001200B490866FFF725
:101DA0007BF8054606E0FFF777F8401B022801D9CB
:101DB00003200DE6034808380068C0F3406000289F
:101DC000F1D049E00838024000004742800E474207
:101DD00000700040002021490866FFF75DF80546C5
:101DE00006E0FFF759F8401B022801D90320EFE570
:101DF0001B480068C0F340600028F2D12CE0A069C5
:101E0000012800D1E4E51648001D0668A0690128F4
:101E100020D006F48001E06981421BD106F03F0129
:101E2000206A814216D147F6C0703040616AB0EB3B
:101E3000811F0FD106F440310122A06AC2EB50008D
:101E4000B1EB004F06D106F070612C20005DB1EBC4
:101E5000006F01D00120BBE50020B9E5000047423A
:101E60000038024070B504460D460CB9012070BD23
:101E700094F82C0028B9002084F82D00204600F0AA
:101E800011F8022084F82C00211D2068FEF7C5FD02
:101E90002946D4E90002FEF72BFE012084F82C002D
:101EA0000020E4E710B586B0044600BF0020009093
:101EB0004348006840F00100414908600846006856
:101EC00000F00100009000BF00BF00BF00200090A4
:101ED0003B480838006840F0040039490839086078
:101EE0000846006800F00400009000BF00BF00BF7B
:101EF000002000900846006840F00800086008468E
:101F0000006800F00800009000BF00BF00BF002084
:101F100000900846006840F010000860084600681D
:101F200000F01000009000BF00BF00BF0020009034
:101F30000846006840F0200008600846006800F08D
:101F40002000009000BF00BF00BF002000900846A6
:101F5000006840F0400008600846006800F040005B
:101F6000009000BF00BF0D200190022002900120D0
:101F70000390032004900C20059001A91148FEF75E
:101F80006BFE4CF20370019001A90F48FEF764FE4E
:101F90004FF68370019001A90C48FEF75DFE4FF6E5
:101FA0003F00019001A90A48FEF756FE48F237109B
:101FB000019001A90748FEF74FFE06B010BD0000D2
:101FC0003838024000080240000C02400010024075
:101FD000001402400018024070B504460D4694F803
:101FE0002C00022800D170BD94F82C0001280AD1E1
:101FF000022084F82C0029462068FEF744FD0120C9
:1020000084F82C0001E00120EDE70020EBE72DE94A
:10201000F04104460E46174694F82C50022D02D18A
:102020000220BDE8F081012D01D0052D12D1022042
:1020300084F82C003A4631462068FEF72EFD3068C1
:10204000022803D1052084F82C0005E0012084F843
:102050002C0001E00120E4E70020E2E770B504462F
:102060000E4615460CB9012070BD94F8490028B9F8
:10207000002084F84800204600F020F804F1080110
:102080002068FEF74BFC3146A2682068FEF792FC00
:102090002946236BD4E90102FEF71EFCA1682068E3
:1020A00050F8210040F00100A268216841F82200A8
:1020B000012084F849000020D6E7000010B586B062
:1020C000044600BF002000902248006840F0010054
:1020D000204908600846006800F00100009000BF39
:1020E00000BF00BF002000901A480838006840F088
:1020F00008001849083908600846006800F0080020
:10210000009000BF00BF00BF00200090084600689C
:1021100040F0100008600846006800F010000090D1
:1021200000BF00BF4EF2B370019002200290012068
:102130000390022004900C20059001A90648FEF7A8
:102140008BFD4FF68070019001A90448FEF784FDD5
:1021500006B010BD38380240000C024000100240AA
:10216000042808D14FF0E021096941F004014FF043
:10217000E022116107E04FF0E021096921F004013C
:102180004FF0E0221161704770B504462546681E85
:10219000B0F1807F01D301200FE0681E4FF0E021F5
:1021A00048610F214FF0FF3000F002FF00204FF098
:1021B000E021886107200861002070BD70477047EA
:1021C000704710B5044620680069C0F34000D8B1DC
:1021D0002068C068C0F34000B0B16FF00200216811
:1021E0000861012020772068806900F0030018B1A1
:1021F0002046FFF7E5FF05E0204600F0ADF8204659
:1022000000F0ABF80020207720680069C0F3800060
:10221000D8B12068C068C0F38000B0B16FF004008E
:1022200021680861022020772068806900F44070EE
:1022300018B12046FFF7C4FF05E0204600F08CF8F7
:10224000204600F08AF80020207720680069C0F35B
:10225000C000D8B12068C068C0F3C000B0B16FF052
:10226000080021680861042020772068C06900F018
:10227000030018B12046FFF7A3FF05E0204600F059
:102280006BF8204600F069F800202077206800698C
:10229000C0F30010D8B12068C068C0F30010B0B11E
:1022A0006FF0100021680861082020772068C0695D
:1022B00000F4407018B12046FFF782FF05E0204689
:1022C00000F04AF8204600F048F800202077206807
:1022D000006900F0010058B12068C06800F00100FA
:1022E00030B16FF0010021680861204600F036F837
:1022F00020680069C0F3C01058B12068C068C0F3FE
:10230000C01030B16FF08000216808612046FFF7EF
:1023100055FF20680069C0F3801058B12068C0687C
:10232000C0F3801030B16FF0400021680861204692
:1023300000F026F820680069C0F3401058B120680A
:10234000C068C0F3401030B16FF020002168086110
:102350002046FFF734FF10BD7047704710B50446A4
:1023600005492068884205D100BF01210348FEF7D6
:1023700083FD00BF10BD00000010004000040240BB
:1023800070477047704701460022002391F83D20B6
:1023900091F83E3042EA0300704700002DE9F84F03
:1023A0000446206805682068C668206847694FF0C1
:1023B0000009CA4605F00F09B9F1000F0AD105F06E
:1023C000200038B106F0200020B1204600F0D6FBF6
:1023D000BDE8F88FB9F1000F7CD007F0010018B903
:1023E00006F49070002875D005F0010030B106F4B5
:1023F000807018B1206C40F00100206405F00400EA
:1024000030B107F0010018B1206C40F002002064E8
:1024100005F0020030B107F0010018B1206C40F067
:102420000400206405F0080048B106F0200010B94F
:1024300007F0010018B1206C40F008002064206C07
:10244000002846D005F0200028B106F0200010B189
:10245000204600F093FB20684069C0F3801A206C8E
:1024600000F0080010B9BAF1000F2DD0204600F09E
:102470003FFB2068406900F04000402820D100BFA9
:1024800000BF2168143151E8001F21F0400021688D
:10249000143141E80002002AF3D100BFA06B50B113
:1024A0007548A16B0865A06BFEF7C2FB88B1A06BF5
:1024B000016D88470DE02046FFF764FF09E009E061
:1024C0002046FFF75FFF04E02046FFF75BFF002098
:1024D00020647DE7206B012876D105F010000028EC
:1024E00072D006F010000028FAD000BF0020009043
:1024F00020680068009020684068009000BF00BF1E
:102500002068406900F0400040285ED1A06B006860
:1025100040681FFA80F8B8F1000F54D0A08D4045F4
:1025200051DDA4F82E80A06BC069B0F5807F43D048
:1025300000BF00BF21680C3151E8001F21F48070FA
:1025400021680C3141E80002002AF3D100BF00BF2E
:1025500000BF2168143151E8001F21F001002168FB
:10256000143141E80002002AF3D100BF00BF00BFD0
:102570002168143151E8001F21F040002168143116
:1025800041E80002002AF3D100BF202084F83E0079
:102590000020206300BF00BF21680C3151E8001FFC
:1025A00021F0100021680C3141E80002002AF3D12B
:1025B00000BFA06BFEF7E6FAA08DE28D801A81B213
:1025C0002046FFF7DEFE03E740E0A08DE18D401AD4
:1025D0001FFA80F8E08DC0B3B8F1000F35D000BF0E
:1025E00000BF21680C3151E8001F21F49070216870
:1025F0000C3141E80002002AF3D100BF00BF00BF48
:102600002168143151E8001F21F0010021681431C4
:1026100041E80002002AF3D100BF202084F83E00E8
:102620000020206300BF00BF21680C3151E8001F6B
:1026300021F0100021680C3141E80002002AF3D19A
:1026400000BF41462046FFF79CFEC1E605F0800032
:1026500030B106F0800018B1204600F046FCB7E625
:1026600005F0400030B106F0400018B1204600F0FF
:1026700075FAADE600BFABE6DD2A000810B50446EA
:102680000CB9012010BDA06900B100E000BF94F8B2
:102690003D0028B9002084F83C00204600F028F8CE
:1026A000242084F83D002068C06820F40050216890
:1026B000C860204600F0DEFA2068006920F49040EF
:1026C000216808612068406920F02A00216848617B
:1026D0002068C06840F400502168C8600020206471
:1026E000202084F83D0084F83E000020CAE7000066
:1026F00010B586B004462E492068884255D100BFE7
:1027000000BF002000902B48006840F010002949CD
:1027100008600846006800F01000009000BF00BF8D
:1027200000BF00BF00BF002000902248143800689E
:1027300040F001001F49143908600846006800F0A5
:102740000100009000BF00BF00BF00BF00BF00201D
:1027500000900846006840F00100086008460068E4
:1027600000F00100009000BF00BF00BF48150190BD
:10277000022002900120039002200490072005907F
:1027800001A90D48FEF768FA4FF480600190072018
:10279000059001A90848FEF75FFA2520FEF7A9FD7C
:1027A000032211462520FEF7B4FD06B010BD00003F
:1027B00000100140443802400000024070B5044659
:1027C0000D46164694F83E00202816D105B10EB9E4
:1027D000012070BD00BF94F83C00012801D1022007
:1027E000F7E7012084F83C0000BF00202063324658
:1027F0002946204600F054FBEBE70220E9E7000001
:102800001D4A0168914236D11C49098801F40041F2
:1028100089BB1A49098801F4804171B118490978C6
:102820000A2903D00021154A118024E013490988A0
:1028300041F40041114A11801DE0114909780D2928
:1028400006D10E49098841F480410C4A118012E0FA
:102850000B490978094A1288C2F30D02094B9954B1
:1028600006490988491C054A118011460988C7296B
:1028700001DD002111807047001001402C00002074
:102880002E000020F4000020704700BFFEE7F0B5E6
:102890008E880768FF68C7F30B473E443304066819
:1028A0008436802707FB0266766806F47047066860
:1028B00084364FF0800C0CFB026677600E68076868
:1028C000FF68C7F30B473E44761C1E4307688437F6
:1028D0000CFB02777E608E890768FF68C7F30A07E2
:1028E0003E44330406688436802707FB0266B668D8
:1028F00006F47047066884360CFB0266B7608E6883
:102900000768FF68C7F30A073E44761C46EA0307D8
:10291000066884360CFB0266B7600668843680273A
:1029200007FB0266366926F00707066884360CFB4B
:10293000026637610F69066884360CFB02663761F0
:102940003126765C33023226765C34040E7E350600
:1029500006688436802707FB0266B669002706688A
:1029600084360CFB0266B76191F830601E43264343
:1029700046EA0507066884360CFB0266B7610668FE
:102980008436802707FB0266766926F0FF07066813
:1029900084360CFB026677614F69066884360CFB4F
:1029A0000266776106688436802707FB0266F6694F
:1029B00040F20777BE43076884370CFB0277FE615D
:1029C000D1E907763743066884360CFB0266F76167
:1029D00006688436802707FB0266B66A0027066809
:1029E00084360CFB0266B7624F6A066884360CFBBD
:1029F0000266B7620E690EB9042313E00E69012E58
:102A000001D103230EE00E69042E08D00E69022EB8
:102A100005D00E69032E02D00E69072E01D10223C4
:102A200000E0012306688436802707FB0266F66A09
:102A300006F0E027066884364FF0800C0CFB026637
:102A4000F762D1E90076F61B5E43F61C0F8D5F43FB
:102A500046EA0747066884360CFB0266F76206689A
:102A60008436802707FB0266366BF70AFF0206688A
:102A700084360CFB02663763CF6A066884360CFB2B
:102A80000266376306688436D701F65946F00107B7
:102A9000066884364FEAC21C46F80C70F0BD00BFD1
:102AA000FEE7704710B5FEF7FDF905F065FE012859
:102AB00001D005F02BFC10BD0348006840F4700005
:102AC000014908607047000088ED00E010B5024839
:102AD000FFF777FB10BD00009C03002070B5054692
:102AE000AC6B0020E085E0842046FFF74BFC70BD16
:102AF00000BF00BF02680C3252E8002F22F4907130
:102B000002680C3242E80013002BF3D100BF00BF73
:102B100000BF0268143252E8002F22F0010102685F
:102B2000143242E80013002BF3D100BF016B0129DE
:102B30000ED100BF00BF02680C3252E8002F22F015
:102B4000100102680C3242E80013002BF3D100BFE1
:102B5000202180F83E1000210163704710B5044623
:102B60002068C06820F040002168C860202084F8F8
:102B70003D002046FFF788FE002010BDF8B5044652
:102B800094F83E00222873D1A068B0F5805F0CD184
:102B9000206950B90025A66A20684068C0F3080083
:102BA0003080A06A801CA06215E0A56A0026A0689B
:102BB000B0F5805F03D0A06828B9206918B92068F3
:102BC0004068287004E02068406800F07F002870AA
:102BD000A06A401CA062E08D401E80B2E085002803
:102BE00044D12068C06820F020002168C8602068B7
:102BF000C06820F480702168C8602068406920F0B7
:102C0000010021684861202084F83E00206B0128E3
:102C100026D10020206300BF00BF21680C3151E89D
:102C2000001F21F0100021680C3141E80002002A49
:102C3000F3D100BF2068006800F0100010280AD10E
:102C400000BF002000902068006800902068406865
:102C5000009000BF00BFA18D2046FFF792FB02E06D
:102C60002046FFF7CDFD0020F8BD01E00020FBE786
:102C70000220F9E72DE9F84F04462068006920F4A6
:102C80004050E1680843216808612169A068084351
:102C900061690843E169084300902068C06849F20F
:102CA0000C618843009908432168C8602068406926
:102CB00020F44070A1690843216848617649206882
:102CC000884203D075492068884203D1FEF714FE7C
:102CD000814602E0FEF700FE8146E069B0F5004F54
:102CE0006CD102206168A0FB015003461920A9FBAA
:102CF000007001462A463846FDF731FB6421B0FBDF
:102D0000F1F04FEA001A02206168A0FB01510B4666
:102D10001920A9FB00712A463846FDF720FB83469F
:102D200002206168A0FB015003461920A9FB007135
:102D30002A463846FDF713FB6421B0FBF1F000EBA7
:102D4000C00101EB0010ABEB8000322101EBC000B1
:102D50006421B0FBF1F000F0F8000AEB400A022019
:102D60006168A0FB015003461920A9FB00700146D1
:102D70002A463846FDF7F3FA834602206168A0FB35
:102D8000015003461920A9FB00712A463846FDF779
:102D9000E6FA6421B0FBF1F000EBC00101EB00109A
:102DA000ABEB8000322101EBC0006421B0FBF1F0FD
:102DB00000F007005044216888606AE004206168E0
:102DC000A0FB015003461920A9FB007001462A46CA
:102DD0003846FDF7C4FA824604206168A0FB015022
:102DE00003461920A9FB007001462A463846FDF724
:102DF000B6FA6421B0FBF1F000EBC00101EB00106A
:102E0000AAEB8000322101EB00106421B0FBF1F04D
:102E100000F0F00A04206168A0FB0170034619204D
:102E2000A9FB00513A462846FDF799FA6421B0FB08
:102E3000F1F00AEB001A04206168A0FB01510B4677
:102E40001920A9FB00712A463846FDF788FA834607
:102E500004206168A0FB015003461920A9FB007003
:102E600001462A463846FDF77AFA6421B0FBF1F0B4
:102E700000EBC00101EB0010ABEB8000322101EB55
:102E800000106421B0FBF1F000F00F005044216805
:102E90008860BDE8F88F0000001001400014014078
:102EA00010B5034699629A85DA85002018642220BD
:102EB00083F83E0000BF002083F83C0000BF186983
:102EC00028B11868C06840F480701C68E060186819
:102ED000406940F001001C6860611868C06840F0FB
:102EE00020001C68E060002010BD014691F83D0004
:102EF000212828D18868B0F5805F0BD1086948B9CE
:102F00000A6A1088C0F308000B685860086A801CC1
:102F1000086205E00B6A581C086218780B68586054
:102F2000C88C401E80B2C88458B90868C06820F0B8
:102F300080000B68D8600868C06840F040000B68EB
:102F4000D860002070470220FCE7000070B5002424
:102F50000F4D1048FFF722FA00BF03E0641CAC429B
:102F600000D904E00B48FFF70EFA2028F6D100BF85
:102F7000002403E0641CAC4200D906E001220649AB
:102F80000448FFF71BFC0028F4D100BF70BD00000F
:102F9000FFFF0100BC0100202E00002000BFFEE763
:102FA00002480068C0F30220704700000CED00E00A
:102FB00010B5002804DB0A07130E054A135406E077
:102FC0000A07140E034A00F00F031B1FD45410BD50
:102FD00000E400E018ED00E000BF704770B5044663
:102FE0000420FFF7BDF80A48046025464FF47A70C4
:102FF00045434FF0E020006940F002004FF0E0212F
:10300000086108464561006940F00100086170BD33
:103010003000002030B50446002504E04FF47A70FB
:1030200000F004F86D1CA542F8D330BD70B503461E
:1030300000224FF0E02675690D4E366803FB06F45A
:103040004FF0E026B16910E04FF0E026B069884209
:103050000BD0884202D20E1A324402E02E1A0E44DD
:1030600032440146A24200D300E0EDE700BF70BD4C
:103070003000002000BF054A126802F04002002A1A
:10308000F9D0C2B2014B5A607047000000100140F5
:103090001CB50648012100238022CDE9001004A1BF
:1030A000064805F039FB04F095FF1CBD0400002024
:1030B00073746172745F7461736B0000F57700085C
:1030C00000B587B000BF00BF0020019039480068FC
:1030D00040F08000374908600846006800F0800032
:1030E000019000BF00BF00BF00BF00BF00200190E3
:1030F0000846006840F0800008600846006800F05C
:103100008000019000BF00BF00BF00BF00BF0020D3
:1031100001900846006840F0040008600846006816
:1031200000F00400019000BF00BF00BF00BF00BF5F
:10313000002001900846006840F001000860084641
:10314000006800F00100019000BF00BF00BF082030
:10315000029000200390012004900220059002A913
:103160001548FDF779FD042002900020039001200E
:1031700004900220059002A90F48FDF76DFD4FF461
:10318000005002900020039001200490022005903E
:1031900002A90A48FDF760FD01200290002003907B
:1031A00002200490059002A90548FDF755FD07B0DF
:1031B00000BD000030380240001C02400008024000
:1031C0000000024070B5044600260D4805880D48F1
:1031D000006818B1204602F0BBFF0FE008484088A5
:1031E00045430021084602F0A9FD02F055FF0026E4
:1031F00002E005480480761CAE42FAD370BD0000A0
:1032000050020020480300200000086010B504466A
:10321000504884715048006850B1204602F0BEFF0B
:103220004D48C08A4B4908804B48008B488010BDF0
:10323000002C45D1F020474908804FF4A070488009
:103240000846808845F21051884210D14FF4305022
:10325000404908814FF4285048814FF42C50888110
:103260004FF4F07008804FF4487048801AE03948F5
:10327000808841F6631188420DD12C2035490881A0
:103280002B2048812A2088814FF4F07008804FF469
:103290004870488006E02C202E4908812A20488169
:1032A0002B2088812B48808845F2103188424CD1F0
:1032B0004FF4A070274908804FF4F070488044E034
:1032C0004FF4A07023490880F02048800846808889
:1032D00045F21051884210D14FF430501D490881F9
:1032E0004FF4285048814FF42C5088814FF4487097
:1032F00008804FF4F07048801AE01648808841F644
:10330000631188420DD12C20124908812A2048815E
:103310002B2088814FF4487008804FF4F07048806B
:1033200006E02C200B4908812A2048812B20888127
:103330000848808845F21031884206D14FF4F07079
:10334000044908804FF4A0704880002002F0DEFBA2
:1033500000BF6CE7500200204803002070B505460E
:103360000E4614460848006828B1224631462846D1
:1033700002F02AFF07E03146284602F0DFFC02F0A7
:103380008BFE02490C8070BD4803002000000860DD
:1033900010B5CF2002F074FE002002F065FEC120BF
:1033A00002F062FE302002F05FFEED2002F068FEC7
:1033B000642002F059FE032002F056FE122002F0B3
:1033C00053FE812002F050FEE82002F059FE8520D5
:1033D00002F04AFE102002F047FE7A2002F044FE7E
:1033E000CB2002F04DFE392002F03EFE2C2002F0F0
:1033F0003BFE002002F038FE342002F035FE0220B1
:1034000002F032FEF72002F03BFE202002F02CFEFC
:10341000EA2002F035FE002002F026FE002002F035
:1034200023FEC02002F02CFE1B2002F01DFEC12056
:1034300002F026FE012002F017FEC52002F020FE59
:10344000302002F011FE302002F00EFEC72002F004
:1034500017FEB72002F008FE362002F011FE4820C9
:1034600002F002FE3A2002F00BFE552002F0FCFDB5
:10347000B12002F005FE002002F0F6FD1A2002F055
:10348000F3FDB62002F0FCFD0A2002F0EDFDA220C3
:1034900002F0EAFDF22002F0F3FD002002F0E4FD6C
:1034A000262002F0EDFD012002F0DEFDE02002F01A
:1034B000E7FD0F2002F0D8FD2A2002F0D5FD2820DC
:1034C00002F0D2FD082002F0CFFD0E2002F0CCFD6C
:1034D000082002F0C9FD542002F0C6FDA92002F028
:1034E000C3FD432002F0C0FD0A2002F0BDFD0F2005
:1034F00002F0BAFD002002F0B7FD002002F0B4FD9A
:10350000002002F0B1FD002002F0AEFDE12002F04B
:10351000B7FD002002F0A8FD152002F0A5FD172040
:1035200002F0A2FD072002F09FFD112002F09CFD99
:10353000062002F099FD2B2002F096FD562002F0A5
:1035400093FD3C2002F090FD052002F08DFD10203F
:1035500002F08AFD0F2002F087FD3F2002F084FD7B
:103560003F2002F081FD0F2002F07EFD2B2002F0B3
:1035700087FD002002F078FD002002F075FD01209B
:1035800002F072FD3F2002F06FFD2A2002F078FD6C
:10359000002002F069FD002002F066FD002002F02C
:1035A00063FDEF2002F060FD112002F069FD78203C
:1035B000FFF730FD292002F063FD10BD10B5ED20AE
:1035C00002F05EFD012002F04FFDFE2002F04CFDF6
:1035D000EE2002F055FDDE2002F046FD212002F033
:1035E00043FDF12002F04CFD012002F03DFDDF2003
:1035F00002F046FD102002F037FDC42002F040FD2D
:103600008F2002F031FDC62002F03AFD002002F0CA
:103610002BFDE22002F028FDE22002F025FDE22051
:1036200002F022FDBF2002F02BFDAA2002F01CFDBB
:10363000B02002F025FD0D2002F016FD002002F062
:1036400013FD0D2002F010FD002002F00DFD1120F1
:1036500002F00AFD002002F007FD192002F004FD2F
:10366000002002F001FD212002F0FEFC002002F00B
:10367000FBFC2D2002F0F8FC002002F0F5FC3D20C0
:1036800002F0F2FC002002F0EFFC5D2002F0ECFC06
:10369000002002F0E9FC5D2002F0E6FC002002F0D0
:1036A000E3FCB12002F0ECFC802002F0DDFC002005
:1036B00002F0DAFC8B2002F0D7FC002002F0D4FCF0
:1036C000962002F0D1FC002002F0CEFCB22002F0E5
:1036D000D7FC002002F0C8FC002002F0C5FC02204C
:1036E00002F0C2FC002002F0BFFC032002F0BCFC90
:1036F000002002F0B9FCB32002F0C2FC002002F06E
:10370000B3FC002002F0B0FC002002F0ADFC002071
:1037100002F0AAFC002002F0A7FC002002F0A4FCAA
:10372000002002F0A1FC002002F09EFC002002F02C
:103730009BFC002002F098FC002002F095FC002089
:1037400002F092FC002002F08FFC002002F08CFCC2
:10375000002002F089FC002002F086FC002002F02C
:1037600083FC002002F080FC002002F07DFC0020A1
:1037700002F07AFC002002F077FC002002F074FCDA
:10378000002002F071FC002002F06EFCB42002F078
:1037900077FC8B2002F068FC002002F065FC96208C
:1037A00002F062FC002002F05FFCA12002F05CFC51
:1037B000002002F059FCB52002F062FC022002F069
:1037C00053FC002002F050FC032002F04DFC0020CE
:1037D00002F04AFC042002F047FC002002F044FC06
:1037E000B62002F04DFC002002F03EFC002002F06A
:1037F0003BFCB72002F044FC002002F035FC002026
:1038000002F032FC3F2002F02FFC002002F02CFCE2
:103810005E2002F029FC002002F026FC642002F069
:1038200023FC002002F020FC8C2002F01DFC002074
:1038300002F01AFCAC2002F017FC002002F014FC8D
:10384000DC2002F011FC002002F00EFC702002F0DF
:103850000BFC002002F008FC902002F005FC002088
:1038600002F002FCEB2002F0FFFB002002F0FCFB68
:10387000DC2002F0F9FB002002F0F6FBB82002F099
:10388000FFFB002002F0F0FB002002F0EDFB002027
:1038900002F0EAFB002002F0E7FB002002F0E4FB6C
:1038A000002002F0E1FB002002F0DEFB002002F02D
:1038B000DBFBBA2002F0E4FB242002F0D5FB002061
:1038C00002F0D2FB002002F0CFFB002002F0CCFB84
:1038D000C12002F0D5FB202002F0C6FB002002F040
:1038E000C3FB542002F0C0FB002002F0BDFBFF2010
:1038F00002F0BAFB002002F0B7FBC22002F0C0FBCE
:103900000A2002F0B1FB002002F0AEFB042002F01E
:10391000ABFB002002F0A8FBC32002F0B1FB3C206F
:1039200002F0A2FB002002F09FFB3A2002F09CFB79
:10393000002002F099FB392002F096FB002002F0F3
:1039400093FB372002F090FB002002F08DFB3C201F
:1039500002F08AFB002002F087FB362002F084FB95
:10396000002002F081FB322002F07EFB002002F0FA
:103970007BFB2F2002F078FB002002F075FB2C204F
:1039800002F072FB002002F06FFB292002F06CFBBA
:10399000002002F069FB262002F066FB002002F006
:1039A00063FB242002F060FB002002F05DFB24207A
:1039B00002F05AFB002002F057FB232002F054FBD8
:1039C000002002F051FB3C2002F04EFB002002F0F0
:1039D0004BFB362002F048FB002002F045FB322072
:1039E00002F042FB002002F03FFB2F2002F03CFBE4
:1039F000002002F039FB2C2002F036FB002002F000
:103A000033FB292002F030FB002002F02DFB2620A2
:103A100002F02AFB002002F027FB242002F024FB06
:103A2000002002F021FB242002F01EFB002002F007
:103A30001BFB232002F018FB002002F015FBC42022
:103A400002F01EFB622002F00FFB002002F00CFBD4
:103A5000052002F009FB002002F006FB842002F0A2
:103A600003FB002002F000FBF02002F0FDFA002032
:103A700002F0FAFA182002F0F7FA002002F0F4FA45
:103A8000A42002F0F1FA002002F0EEFA182002F071
:103A9000EBFA002002F0E8FA502002F0E5FA0020EC
:103AA00002F0E2FA0C2002F0DFFA002002F0DCFA69
:103AB000172002F0D9FA002002F0D6FA952002F081
:103AC000D3FA002002F0D0FAF32002F0CDFA002061
:103AD00002F0CAFAE62002F0C7FA002002F0C4FAA7
:103AE000C52002F0CDFA322002F0BEFA002002F02A
:103AF000BBFA442002F0B8FA002002F0B5FA6520C3
:103B000002F0B2FA002002F0AFFA762002F0ACFA2E
:103B1000002002F0A9FA882002F0A6FA002002F0A4
:103B2000A3FAC62002F0ACFA202002F09DFA002091
:103B300002F09AFA172002F097FA002002F094FAA5
:103B4000012002F091FA002002F08EFAC72002F064
:103B500097FA002002F088FA002002F085FA00208F
:103B600002F082FA002002F07FFAC82002F088FA00
:103B7000002002F079FA002002F076FA002002F02C
:103B800073FA002002F070FAC92002F079FA0020DE
:103B900002F06AFA002002F067FA002002F064FAEC
:103BA000002002F061FA002002F05EFA002002F02C
:103BB0005BFA002002F058FA002002F055FA0020CB
:103BC00002F052FA002002F04FFA002002F04CFA04
:103BD000002002F049FA002002F046FA002002F02C
:103BE00043FA002002F040FA002002F03DFAE02003
:103BF00002F046FA162002F037FA002002F034FAFA
:103C00001C2002F031FA002002F02EFA212002F0EE
:103C10002BFA002002F028FA362002F025FA0020C4
:103C200002F022FA462002F01FFA002002F01CFAED
:103C3000522002F019FA002002F016FA642002F075
:103C400013FA002002F010FA7A2002F00DFA002098
:103C500002F00AFA8B2002F007FA002002F004FAC0
:103C6000992002F001FA002002F0FEF9A82002F0EB
:103C7000FBF9002002F0F8F9B92002F0F5F9002074
:103C800002F0F2F9C42002F0EFF9002002F0ECF9A2
:103C9000CA2002F0E9F9002002F0E6F9D22002F091
:103CA000E3F9002002F0E0F9D92002F0DDF900206C
:103CB00002F0DAF9E02002F0D7F9002002F0D4F99E
:103CC000F32002F0D1F9002002F0CEF9E12002F059
:103CD000D7F9162002F0C8F9002002F0C5F91C201F
:103CE00002F0C2F9002002F0BFF9222002F0BCF974
:103CF000002002F0B9F9362002F0B6F9002002F0F7
:103D0000B3F9452002F0B0F9002002F0ADF95220DD
:103D100002F0AAF9002002F0A7F9642002F0A4F949
:103D2000002002F0A1F97A2002F09EF9002002F0B2
:103D30009BF98B2002F098F9002002F095F9992068
:103D400002F092F9002002F08FF9A82002F08CF91D
:103D5000002002F089F9B92002F086F9002002F073
:103D600083F9C42002F080F9002002F07DF9CA2016
:103D700002F07AF9002002F077F9D22002F074F90B
:103D8000002002F071F9D82002F06EF9002002F054
:103D90006BF9E02002F068F9002002F065F9F320E9
:103DA00002F062F9002002F05FF9E22002F068F907
:103DB000052002F059F9002002F056F90B2002F01C
:103DC00053F9002002F050F91B2002F04DF90020B9
:103DD00002F04AF9342002F047F9002002F044F9D9
:103DE000442002F041F9002002F03EF94F2002F099
:103DF0003BF9002002F038F9612002F035F900208B
:103E000002F032F9792002F02FF9002002F02CF9AB
:103E1000882002F029F9002002F026F9972002F00C
:103E200023F9002002F020F9A62002F01DF900205D
:103E300002F01AF9B72002F017F9002002F014F985
:103E4000C22002F011F9002002F00EF9C72002F0A2
:103E50000BF9002002F008F9D12002F005F900204A
:103E600002F002F9D62002F0FFF8002002F0FCF880
:103E7000DD2002F0F9F8002002F0F6F8F32002F05D
:103E8000F3F8002002F0F0F8E32002F0F9F8052042
:103E900002F0EAF8002002F0E7F80A2002F0E4F865
:103EA000002002F0E1F81C2002F0DEF8002002F011
:103EB000DBF8332002F0D8F8002002F0D5F84420D7
:103EC00002F0D2F8002002F0CFF8502002F0CCF837
:103ED000002002F0C9F8622002F0C6F8002002F0CB
:103EE000C3F8782002F0C0F8002002F0BDF8882066
:103EF00002F0BAF8002002F0B7F8972002F0B4F808
:103F0000002002F0B1F8A62002F0AEF8002002F086
:103F1000ABF8B72002F0A8F8002002F0A5F8C22004
:103F200002F0A2F8002002F09FF8C72002F09CF8EF
:103F3000002002F099F8D12002F096F8002002F05B
:103F400093F8D52002F090F8002002F08DF8DD20E3
:103F500002F08AF8002002F087F8F32002F084F8DB
:103F6000002002F081F8E42002F08AF8012002F03B
:103F70007BF8002002F078F8012002F075F80020AC
:103F800002F072F8022002F06FF8002002F06CF8E4
:103F90002A2002F069F8002002F066F83C2002F0C6
:103FA00063F8002002F060F84B2002F05DF800207A
:103FB00002F05AF85D2002F057F8002002F054F8A1
:103FC000742002F051F8002002F04EF8842002F034
:103FD0004BF8002002F048F8932002F045F800204A
:103FE00002F042F8A22002F03FF8002002F03CF874
:103FF000B32002F039F8002002F036F8BE2002F0BB
:1040000033F8002002F030F8C42002F02DF8002030
:1040100002F02AF8CD2002F027F8002002F024F860
:10402000D32002F021F8002002F01EF8DD2002F07B
:104030001BF8002002F018F8F32002F015F8002019
:1040400002F012F8E52002F01BF8002002F00CF854
:10405000002002F009F8002002F006F8002002F02B
:1040600003F8022002F000F8002001F0FDFF2920F3
:1040700001F0FAFF002001F0F7FF3C2001F0F4FF0F
:10408000002001F0F1FF4B2001F0EEFF002001F0D5
:10409000EBFF5D2001F0E8FF002001F0E5FF742058
:1040A00001F0E2FF002001F0DFFF842001F0DCFFDF
:1040B000002001F0D9FF932001F0D6FF002001F08D
:1040C000D3FFA22001F0D0FF002001F0CDFFB320EC
:1040D00001F0CAFF002001F0C7FFBE2001F0C4FFBD
:1040E000002001F0C1FFC42001F0BEFF002001F05C
:1040F000BBFFCD2001F0B8FF002001F0B5FFD320B9
:1041000001F0B2FF002001F0AFFFDC2001F0ACFFB6
:10411000002001F0A9FFF32001F0A6FF002001F02C
:10412000A3FFE62001F0ACFF112001F09DFF00206D
:1041300001F09AFF342001F097FF002001F094FF76
:10414000562001F091FF002001F08EFF762001F053
:104150008BFF002001F088FF772001F085FF002011
:1041600001F082FF662001F07FFF002001F07CFF5C
:10417000882001F079FF002001F076FF992001F0FE
:1041800073FF002001F070FFBB2001F06DFF0020E5
:1041900001F06AFF992001F067FF002001F064FF41
:1041A000662001F061FF002001F05EFF552001F064
:1041B0005BFF002001F058FF552001F055FF002063
:1041C00001F052FF452001F04FFF002001F04CFFAD
:1041D000432001F049FF002001F046FF442001F098
:1041E00043FF002001F040FFE72001F049FF3220AB
:1041F00001F03AFF002001F037FF552001F034FFB5
:10420000002001F031FF762001F02EFF002001F0A8
:104210002BFF662001F028FF002001F025FF67201A
:1042200001F022FF002001F01FFF672001F01CFFBA
:10423000002001F019FF872001F016FF002001F097
:1042400013FF992001F010FF002001F00DFFBB20AB
:1042500001F00AFF002001F007FF992001F004FFA0
:10426000002001F001FF772001F0FEFE002001F0A8
:10427000FBFE442001F0F8FE002001F0F5FE562080
:1042800001F0F2FE002001F0EFFE232001F0ECFE31
:10429000002001F0E9FE332001F0E6FE002001F0ED
:1042A000E3FE452001F0E0FE002001F0DDFEE82005
:1042B00001F0E6FE002001F0D7FE002001F0D4FE60
:1042C000992001F0D1FE002001F0CEFE872001F000
:1042D000CBFE002001F0C8FE882001F0C5FE0020C2
:1042E00001F0C2FE772001F0BFFE002001F0BCFE0D
:1042F000662001F0B9FE002001F0B6FE882001F032
:10430000B3FE002001F0B0FEAA2001F0ADFE0020B7
:1043100001F0AAFEBB2001F0A7FE002001F0A4FEE0
:10432000992001F0A1FE002001F09EFE662001F020
:104330009BFE002001F098FE552001F095FE002024
:1043400001F092FE552001F08FFE002001F08CFE5E
:10435000442001F089FE002001F086FE442001F097
:1043600083FE002001F080FE552001F07DFE00203C
:1043700001F07AFEE92001F083FEAA2001F074FE2C
:10438000002001F071FE002001F06EFE002001F01F
:104390006BFE002001F074FEAA2001F065FECF2024
:1043A00001F06EFE002001F05FFE002001F05CFED7
:1043B000002001F059FE002001F056FE002001F01F
:1043C00053FE002001F050FE002001F04DFE0020C1
:1043D00001F04AFE002001F047FE002001F044FEFB
:1043E000002001F041FE002001F03EFE002001F01F
:1043F0003BFE002001F038FE002001F035FE0020D9
:1044000001F032FE002001F02FFEF02001F038FE16
:10441000002001F029FE502001F026FE002001F0CE
:1044200023FE002001F020FE002001F01DFEF320FD
:1044300001F026FE002001F017FEF92001F020FE19
:10444000062001F011FE102001F00EFE292001F0DF
:104450000BFE002001F008FE3A2001F011FE55206D
:1044600001F002FE112001F00BFE6420FEF7D2FDE8
:10447000292001F005FE352001F002FE002001F0A8
:10448000F3FD512001F0FCFDFF2001F0EDFD532074
:1044900001F0F6FD2C2001F0E7FD552001F0F0FDC4
:1044A000822001F0E1FD2C2001F0EAFD10BD10B5E5
:1044B00055214FF4704001F0F9FDAA214FF201009F
:1044C00001F0F4FD52214FF2020001F0EFFD08214E
:1044D0004FF2030001F0EAFD01214FF2040001F068
:1044E000E5FD0D214FF4304001F0E0FD0D214BF2D0
:1044F000010001F0DBFD0D214BF2020001F0D6FDC1
:1045000034214FF4364001F0D1FD34214BF20160EB
:1045100001F0CCFD34214BF2026001F0C7FD0D210A
:104520004FF4314001F0C2FD0D214BF2011001F0BA
:10453000BDFD0D214BF2021001F0B8FD34214FF406
:10454000374001F0B3FD34214BF2017001F0AEFDB4
:1045500034214BF2027001F0A9FD00214FF43240EA
:1045600001F0A4FD00214BF2012001F09FFD00218C
:104570004BF2022001F09AFD24214FF4384001F063
:1045800095FD24214BF6010001F090FD24214BF60E
:10459000020001F08BFD01214FF43F4001F086FD48
:1045A0000F214FF4334001F081FD0F214BF2013018
:1045B00001F07CFD0F214BF2023001F077FD342138
:1045C0004FF4394001F072FD34214BF6011001F037
:1045D0006DFD34214BF6021001F068FD08214FF407
:1045E000354001F063FD08214BF2015001F05EFD02
:1045F00008214BF2025001F059FD03214FF44240D3
:1046000001F054FD24214FF43A4001F04FFD2421E4
:104610004BF6012001F04AFD24214BF6022001F067
:1046200045FD00214FF43C4001F040FD78214BF660
:10463000014001F03BFD00214BF6024001F036FD48
:1046400000214FF43D4001F031FD78214BF601503F
:1046500001F02CFD00214BF6025001F027FD002156
:104660004FF43E4001F022FD64214BF6016001F061
:104670001DFD00214FF4514001F018FD33214DF292
:10468000011001F013FD00214DF2021001F00EFDAA
:1046900034214DF2031001F009FD00214DF2041008
:1046A00001F004FD3A214DF2051001F0FFFC00215C
:1046B0004DF2061001F0FAFC4A214DF2071001F00C
:1046C000F5FC00214DF2081001F0F0FC5C214DF2E8
:1046D000091001F0EBFC00214DF20A1001F0E6FC9C
:1046E00081214DF20B1001F0E1FC00214DF20C1084
:1046F00001F0DCFCA6214DF20D1001F0D7FC0021E9
:104700004DF20E1001F0D2FCE5214DF20F1001F038
:10471000CDFC01214DF2101001F0C8FC13214DF227
:10472000111001F0C3FC01214DF2121001F0BEFC8A
:1047300054214DF2131001F0B9FC01214DF2141077
:1047400001F0B4FC82214DF2151001F0AFFC012103
:104750004DF2161001F0AAFCCA214DF2171001F01B
:10476000A5FC02214DF2181001F0A0FC00214DF231
:10477000191001F09BFC02214DF21A1001F096FC79
:1047800001214DF21B1001F091FC02214DF21C1091
:1047900001F08CFC34214DF21D1001F087FC022148
:1047A0004DF21E1001F082FC67214DF21F1001F046
:1047B0007DFC02214DF2201001F078FC84214DF2A5
:1047C000211001F073FC02214DF2221001F06EFC69
:1047D000A4214DF2231001F069FC02214DF22410B6
:1047E00001F064FCB7214DF2251001F05FFC0221BD
:1047F0004DF2261001F05AFCCF214DF2271001F0A6
:1048000055FC02214DF2281001F050FCDE214DF242
:10481000291001F04BFC02214DF22A1001F046FC58
:10482000F2214DF22B1001F041FC02214DF22C102F
:1048300001F03CFCFE214DF22D1001F037FC03216C
:104840004DF22E1001F032FC10214DF22F1001F02C
:104850002DFC03214DF2301001F028FC33214DF2E4
:10486000311001F023FC03214DF2321001F01EFC47
:104870006D214DF2331001F019FC00214FF452402C
:1048800001F014FC33214DF2012001F00FFC002156
:104890004DF2022001F00AFC34214DF2032001F018
:1048A00005FC00214DF2042001F000FC3A214DF2FC
:1048B000052001F0FBFB00214DF2062001F0F6FB84
:1048C0004A214DF2072001F0F1FB00214DF20820B2
:1048D00001F0ECFB5C214DF2092001F0E7FB002127
:1048E0004DF20A2001F0E2FB81214DF20B2001F094
:1048F000DDFB00214DF20C2001F0D8FBA6214DF28A
:104900000D2001F0D3FB00214DF20E2001F0CEFB73
:10491000E5214DF20F2001F0C9FB01214DF21020DD
:1049200001F0C4FB13214DF2112001F0BFFB012166
:104930004DF2122001F0BAFB54214DF2132001F088
:10494000B5FB01214DF2142001F0B0FB82214DF2A4
:10495000152001F0ABFB01214DF2162001F0A6FB62
:10496000CA214DF2172001F0A1FB02214DF21820BF
:1049700001F09CFB00214DF2192001F097FB022170
:104980004DF21A2001F092FB01214DF21B2001F0A3
:104990008DFB02214DF21C2001F088FB34214DF2E9
:1049A0001D2001F083FB02214DF21E2001F07EFB51
:1049B00067214DF21F2001F079FB02214DF22020EA
:1049C00001F074FB84214DF2212001F06FFB0221E4
:1049D0004DF2222001F06AFBA4214DF2232001F0C8
:1049E00065FB02214DF2242001F060FBB7214DF25E
:1049F000252001F05BFB02214DF2262001F056FB41
:104A0000CF214DF2272001F051FB02214DF2282049
:104A100001F04CFBDE214DF2292001F047FB022181
:104A20004DF22A2001F042FBF2214DF22B2001F041
:104A30003DFB02214DF22C2001F038FBFE214DF20E
:104A40002D2001F033FB03214DF22E2001F02EFB2F
:104A500010214DF22F2001F029FB03214DF23020CF
:104A600001F024FB33214DF2312001F01FFB032123
:104A70004DF2322001F01AFB6D214DF2332001F08E
:104A800015FB00214FF4534001F010FB33214DF290
:104A9000013001F00BFB00214DF2023001F006FB6A
:104AA00034214DF2033001F001FB00214DF20430BE
:104AB00001F0FCFA3A214DF2053001F0F7FA00213D
:104AC0004DF2063001F0F2FA4A214DF2073001F0C2
:104AD000EDFA00214DF2083001F0E8FA5C214DF2C8
:104AE000093001F0E3FA00214DF20A3001F0DEFA5C
:104AF00081214DF20B3001F0D9FA00214DF20C303A
:104B000001F0D4FAA6214DF20D3001F0CFFA0021C8
:104B10004DF20E3001F0CAFAE5214DF20F3001F0EE
:104B2000C5FA01214DF2103001F0C0FA13214DF207
:104B3000113001F0BBFA01214DF2123001F0B6FA4A
:104B400054214DF2133001F0B1FA01214DF214302D
:104B500001F0ACFA82214DF2153001F0A7FA0121E3
:104B60004DF2163001F0A2FACA214DF2173001F0D1
:104B70009DFA02214DF2183001F098FA00214DF211
:104B8000193001F093FA02214DF21A3001F08EFA39
:104B900001214DF21B3001F089FA02214DF21C3047
:104BA00001F084FA34214DF21D3001F07FFA022128
:104BB0004DF21E3001F07AFA67214DF21F3001F0FC
:104BC00075FA02214DF2203001F070FA84214DF285
:104BD000213001F06BFA02214DF2223001F066FA29
:104BE000A4214DF2233001F061FA02214DF224306C
:104BF00001F05CFAB7214DF2253001F057FA02219D
:104C00004DF2263001F052FACF214DF2273001F05B
:104C10004DFA02214DF2283001F048FADE214DF222
:104C2000293001F043FA02214DF22A3001F03EFA18
:104C3000F2214DF22B3001F039FA02214DF22C30E5
:104C400001F034FAFE214DF22D3001F02FFA03214C
:104C50004DF22E3001F02AFA10214DF22F3001F0E2
:104C600025FA03214DF2303001F020FA33214DF2C4
:104C7000313001F01BFA03214DF2323001F016FA07
:104C80006D214DF2333001F011FA00214FF4544000
:104C900001F00CFA33214DF2014001F007FA002136
:104CA0004DF2024001F002FA34214DF2034001F0CE
:104CB000FDF900214DF2044001F0F8F93A214DF2DE
:104CC000054001F0F3F900214DF2064001F0EEF944
:104CD0004A214DF2074001F0E9F900214DF2084068
:104CE00001F0E4F95C214DF2094001F0DFF9002107
:104CF0004DF20A4001F0DAF981214DF20B4001F04A
:104D0000D5F900214DF20C4001F0D0F9A6214DF269
:104D10000D4001F0CBF900214DF20E4001F0C6F933
:104D2000E5214DF20F4001F0C1F901214DF2104093
:104D300001F0BCF913214DF2114001F0B7F9012146
:104D40004DF2124001F0B2F954214DF2134001F03E
:104D5000ADF901214DF2144001F0A8F982214DF284
:104D6000154001F0A3F901214DF2164001F09EF922
:104D7000CA214DF2174001F099F902214DF2184075
:104D800001F094F900214DF2194001F08FF9022150
:104D90004DF21A4001F08AF901214DF21B4001F059
:104DA00085F902214DF21C4001F080F934214DF2C9
:104DB0001D4001F07BF902214DF21E4001F076F911
:104DC00067214DF21F4001F071F902214DF22040A0
:104DD00001F06CF984214DF2214001F067F90221C4
:104DE0004DF2224001F062F9A4214DF2234001F07E
:104DF0005DF902214DF2244001F058F9B7214DF23E
:104E0000254001F053F902214DF2264001F04EF900
:104E1000CF214DF2274001F049F902214DF22840FF
:104E200001F044F9DE214DF2294001F03FF9022161
:104E30004DF22A4001F03AF9F2214DF22B4001F0F7
:104E400035F902214DF22C4001F030F9FE214DF2EE
:104E50002D4001F02BF903214DF22E4001F026F9EF
:104E600010214DF22F4001F021F903214DF2304085
:104E700001F01CF933214DF2314001F017F9032103
:104E80004DF2324001F012F96D214DF2334001F044
:104E90000DF900214FF4554001F008F933214DF28E
:104EA000015001F003F900214DF2025001F0FEF82B
:104EB00034214DF2035001F0F9F800214DF2045075
:104EC00001F0F4F83A214DF2055001F0EFF800211D
:104ED0004DF2065001F0EAF84A214DF2075001F078
:104EE000E5F800214DF2085001F0E0F85C214DF2A8
:104EF000095001F0DBF800214DF20A5001F0D6F81C
:104F000081214DF20B5001F0D1F800214DF20C50EF
:104F100001F0CCF8A6214DF20D5001F0C7F80021A8
:104F20004DF20E5001F0C2F8E5214DF20F5001F0A4
:104F3000BDF801214DF2105001F0B8F813214DF2E7
:104F4000115001F0B3F801214DF2125001F0AEF80A
:104F500054214DF2135001F0A9F801214DF21450E3
:104F600001F0A4F882214DF2155001F09FF80121C3
:104F70004DF2165001F09AF8CA214DF2175001F087
:104F800095F802214DF2185001F090F800214DF2F1
:104F9000195001F08BF802214DF21A5001F086F8F9
:104FA00001214DF21B5001F081F802214DF21C50FD
:104FB00001F07CF834214DF21D5001F077F8022108
:104FC0004DF21E5001F072F867214DF21F5001F0B2
:104FD0006DF802214DF2205001F068F884214DF265
:104FE000215001F063F802214DF2225001F05EF8E9
:104FF000A4214DF2235001F059F802214DF2245022
:1050000001F054F8B7214DF2255001F04FF802217C
:105010004DF2265001F04AF8CF214DF2275001F011
:1050200045F802214DF2285001F040F8DE214DF202
:10503000295001F03BF802214DF22A5001F036F8D8
:10504000F2214DF22B5001F031F802214DF22C509B
:1050500001F02CF8FE214DF22D5001F027F803212C
:105060004DF22E5001F022F810214DF22F5001F098
:105070001DF803214DF2305001F018F833214DF2A4
:10508000315001F013F803214DF2325001F00EF8C7
:105090006D214DF2335001F009F800214FF45640D4
:1050A00001F004F833214DF2016000F0FFFF002110
:1050B0004DF2026000F0FAFF34214DF2036000F07F
:1050C000F5FF00214DF2046000F0F0FF3A214DF2AF
:1050D000056000F0EBFF00214DF2066000F0E6FFF6
:1050E0004A214DF2076000F0E1FF00214DF2086017
:1050F00000F0DCFF5C214DF2096000F0D7FF0021D9
:105100004DF20A6000F0D2FF81214DF20B6000F0F9
:10511000CDFF00214DF20C6000F0C8FFA6214DF23A
:105120000D6000F0C3FF00214DF20E6000F0BEFFE5
:10513000E5214DF20F6000F0B9FF01214DF2106042
:1051400000F0B4FF13214DF2116000F0AFFF012118
:105150004DF2126000F0AAFF54214DF2136000F0EE
:10516000A5FF01214DF2146000F0A0FF82214DF255
:10517000156000F09BFF01214DF2166000F096FFD4
:10518000CA214DF2176000F091FF02214DF2186024
:1051900000F08CFF00214DF2196000F087FF022122
:1051A0004DF21A6000F082FF01214DF21B6000F009
:1051B0007DFF02214DF21C6000F078FF34214DF29A
:1051C0001D6000F073FF02214DF21E6000F06EFFC3
:1051D00067214DF21F6000F069FF02214DF220604F
:1051E00000F064FF84214DF2216000F05FFF022196
:1051F0004DF2226000F05AFFA4214DF2236000F02E
:1052000055FF02214DF2246000F050FFB7214DF20E
:10521000256000F04BFF02214DF2266000F046FFB2
:10522000CF214DF2276000F041FF02214DF22860AE
:1052300000F03CFFDE214DF2296000F037FF022133
:105240004DF22A6000F032FFF2214DF22B6000F0A7
:105250002DFF02214DF22C6000F028FFFE214DF2BF
:105260002D6000F023FF03214DF22E6000F01EFFA1
:1052700010214DF22F6000F019FF03214DF2306034
:1052800000F014FF33214DF2316000F00FFF0321D5
:105290004DF2326000F00AFF6D214DF2336000F0F4
:1052A00005FF55214FF4704000F000FFAA214FF296
:1052B000010000F0FBFE52214FF2020000F0F6FE6A
:1052C00008214FF2030000F0F1FE00214FF204002C
:1052D00000F0ECFECC214FF4314000F0E7FE00215D
:1052E0004BF2011000F0E2FE05214FF4364000F0D1
:1052F000DDFE70214FF4374000F0D8FE70214BF2F4
:10530000017000F0D3FE01214FF4384000F0CEFED2
:1053100003214BF6010000F0C9FE03214BF6020009
:1053200000F0C4FE03214BF6030000F0BFFE022193
:105330004FF43C4000F0BAFE00214BF6014000F073
:10534000B5FE00214BF6024000F0B0FED0214FF434
:10535000494000F0ABFE02214CF6011000F0A6FE21
:1053600050214CF6021000F0A1FE50214CF6031023
:1053700000F09CFE50214CF6041000F097FE002136
:105380004FF4545000F092FE55214FF4685000F055
:105390008DFE4FF4885000F073FE7820FDF746FE36
:1053A0004FF4245000F06CFE10BD10B5E22000F068
:1053B00067FE1D2000F058FE022000F055FE04207C
:1053C00000F052FE6420FDF731FEE02000F058FEB0
:1053D000012000F049FE0A20FDF71CFEE02000F04D
:1053E0004FFE032000F040FE0C20FDF713FE0120CD
:1053F00000F046FE0A20FDF70DFEE62000F040FE1C
:105400002F2000F031FEFF2000F02EFEFF2000F0E4
:105410002BFEB02000F034FE202000F025FE0020FE
:1054200000F022FE032000F01FFE40F21F3000F0CB
:105430001BFE012000F018FE40F2DF1000F014FE09
:10544000002000F011FEB42000F01AFE042000F04D
:105450000BFE40F21F4000F007FE002000F004FEAB
:105460002E2000F001FE002000F0FEFD002000F0E4
:10547000FBFD002000F0F8FD002000F0F5FDB62057
:1054800000F0FEFD022000F0EFFD4FF4037000F08D
:10549000EBFD002000F0E8FD172000F0E5FD1520F1
:1054A00000F0E2FD002000F0DFFD002000F0DCFD58
:1054B000F02000F0E5FD032000F0D6FD292000F0EB
:1054C000DFFDD02000F0DCFD002000F0CDFDBE208F
:1054D00000F0D6FD052000F0C7FDFE2000F0C4FD61
:1054E000012000F0C1FD002000F0BEFD002000F012
:1054F000BBFD002000F0B8FDB82000F0C1FD032086
:1055000000F0B2FD012000F0AFFDBA2000F0B8FDC0
:10551000012000F0A9FD10BD10B5112000F0B0FD74
:105520007820FDF777FD362000F0AAFD002000F07E
:105530009BFD3A2000F0A4FD052000F095FDB2206F
:1055400000F09EFD0C2000F08FFD0C2000F08CFD83
:10555000002000F089FD332000F086FD332000F0AC
:1055600083FDB72000F08CFD352000F07DFDBB20D1
:1055700000F086FD322000F077FDC02000F080FDB5
:105580000C2000F071FDC22000F07AFD012000F037
:105590006BFDC32000F074FD102000F065FDC420F9
:1055A00000F06EFD202000F05FFDC62000F068FDD9
:1055B0000F2000F059FDD02000F062FDA42000F083
:1055C00053FDA12000F050FDE02000F059FDD02057
:1055D00000F04AFD002000F047FD022000F044FDED
:1055E000072000F041FD0A2000F03EFD282000F0D9
:1055F0003BFD322000F038FD442000F035FD422014
:1056000000F032FD062000F02FFD0E2000F02CFDF2
:10561000122000F029FD142000F026FD172000F0D4
:1056200023FDE12000F02CFDD02000F01DFD002026
:1056300000F01AFD022000F017FD072000F014FD15
:105640000A2000F011FD282000F00EFD312000F0AE
:105650000BFD542000F008FD472000F005FD0E2052
:1056600000F002FD1C2000F0FFFC172000F0FCFC05
:105670001B2000F0F9FC1E2000F0F6FC2A2000F0B0
:10568000FFFC002000F0F0FC002000F0EDFC00200A
:1056900000F0EAFCEF2000F0E7FC2B2000F0F0FC2B
:1056A000002000F0E1FC002000F0DEFC012000F012
:1056B000DBFC3F2000F0D8FC292000F0E1FC10BD0D
:1056C00000B595B001F006F8FE498880084680884C
:1056D00010B100F053FEBEE100BF00BF00200190FA
:1056E000F948006840F00800F7490860084600687B
:1056F00000F00800019000BF00BF00BF00BF00BF66
:10570000002001900846006840F008000860084644
:10571000006800F00800019000BF00BF00BF00BF9C
:1057200000BF002001900846006840F008000860B3
:105730000846006800F00800019000BF00BF00BFED
:1057400000BF00BF002001900846006840F008003C
:1057500008600846006800F00800019000BF00BF24
:1057600000BF00BF00BF002001900846006840F065
:10577000020008600846006800F00200019000BFC7
:1057800000BF00BF802010900220119001201290D5
:10579000022013900C20149010A9CC48FBF75CFA5F
:1057A0002020109010A9C948FBF756FA102010903D
:1057B00010A9C648FBF750FA4FF40050109010A9FA
:1057C000C248FBF749FA202010900120119010A93F
:1057D000BF48FBF741FA4FF02040BE490860BE4881
:1057E0004860002088600021BA48C1600161102132
:1057F000416100218161C16141624FF48051816248
:105800000021C1624FF48041016300214163816343
:105810004FF48011C1630F20099000200A904620A8
:105820000B9000200F900F200290002003900F207B
:1058300004900020089002AA09A9A648FCF70EFCD3
:105840003220FDF7E7FBD32000F01AFC00F054F9FA
:105850009C49888000F050F99A49888000F04CF902
:1058600098498880084680884FF6FF7101EA002039
:105870009449888000F040F9924989880843914909
:1058800088800846808849F2413188427DD00420D2
:1058900000F0F6FB00F030F98A49888000F02CF91E
:1058A0008849888000F028F98649888008468088E1
:1058B0004FF6FF7101EA00208249888000F01CF950
:1058C0008049898808437F4988800846808848F253
:1058D0005251884203D147F289707A4988807948C9
:1058E000808847F289718842D0D0D42000F0C8FB6C
:1058F00000F002F97349888000F0FEF87149888051
:1059000000F0FAF86F498880084680884FF6FF71EA
:1059100001EA00206B49888000F0EEF86949898827
:105920000843684988800846808845F210318842DB
:1059300062D055214FF4704000F0B8FBAA214FF21D
:10594000010000F0B3FB52214FF2020000F0AEFB69
:1059500008214FF2030000F0A9FB01214FF20400DF
:1059600000F0A4FB4FF4454000F08AFB00F0C4F8BF
:1059700054498880084680884FF6FF7101EA00206C
:10598000504988804CF2015000E035E000F078FB8F
:1059900000F0B2F84B49898808434A4988800520BD
:1059A000FDF738FB4748808845F21051884223D0E4
:1059B000A12000F065FB00F09FF84249888000F0CC
:1059C0009BF840498880084680884FF6FF7101EABD
:1059D00000203C49888000F08FF83A4989880843C4
:1059E000384988800846808845F26171884203D131
:1059F00041F66310334988803248808847F28971C4
:105A0000884202D1FFF788FD25E02E48808849F2C0
:105A10004131884202D1FDF7BBFC1CE02948808857
:105A200045F21031884202D1FDF7C8FD13E0254848
:105A3000808845F21051884202D1FEF738FD0AE015
:105A40002048808841F66311884204D1FFF7ADFCFD
:105A5000642000F0D9FA1B48808849F2413188421D
:105A60000BD01848808841F66311884205D015484C
:105A7000808847F28971884209D1032002900490FE
:105A800014490B6B8A68486802A9FAF725FF0D488C
:105A9000808845F21031884205D00A48808845F256
:105AA0001051884209D102200290049009490B6BE1
:105AB0008A68486802A9FAF70FFF0020FDF7A6FBE5
:105AC00000BF0BE05002002030380240000C0240C2
:105AD0000004024000020020040100A00122202155
